:100BD200730041542B4349504D55583D310D0A0085
:100BE20041542B4349505345525645523D312C38BE
:100BF2003038300D0A0041542B43495053454E447E
:100C02003D302C340D0A003A676574003F065B4F95
:100C1200666D7D077F6F777C395E79710040761E45
:100C22007038375C733E783D6750376EBF86DBCFD6
:0F0C3200E6EDFD87FFEF46010204081020408029
:100FC2000C691F1C1F1E1F1E1F1F1E1F1E1F084DE8
:0E0FD2000000000000000000045701020304AC
:10002600E4F593F594F591F592F595F596F5B1F518
:10003600B2F5B3F5B4F5C9F5CAF5CBF5CCF5E1F5EE
:10004600E2759D0C75BCE0F575F560F555F54CF55A
:1000560062F563F540F541758E80758CA9758A9AAF
:10006600D2A9D28C7F01120DD1D2AF7F0878377416
:1000760010F608DFFC7F08120003120E15C2D575B4
:1000860046017547077548E3754A01E52BC3943C5D
:100096004002D2D5E542C3943C4002D2D5E54BC3DB
:1000A60094184002D2D530D50BE4F52BF542754BAA
:1000B6000C120CF8AF60120EF2E4F549F55E7543CA
:1000C60001F55DF544F545F55CF556F5363001FD6F
:1000D600121081E549B4010A0563E56370090562FA
:1000E6008005E4F562F563C3E56394D0E5629407A1
:1000F6004003120FFEC3E5639428E562942340058E
:100106007F02120C41C201E55ED39400400EE55E0B
:10011600940550080541E54170020540C3E5419448
:1001260020E540944E4007E4F55EF540F54105684C
:10013600E56870020567C394E8E56794034010E438
:10014600F567F56812000E120E15AF60120EF20575
:1001560036E536C394324006E4F536120AEFE54436
:1001660070030203D6B41B03E4F560E544B41C0334
:10017600756001E544B41D03756002E544B41E11C3
:10018600E5606403600BE543B40106756003E4F5BE
:1001960055E544B41F12E5606404600CE560640331
:1001A6006006E54364016013E544B41F14E560B4DA
:1001B600030FE555700BE543B40106756004E4F5DD
:1001C60055E544C39411402DE544D3941A5026E5D1
:1001D60060B40321E555C39404501AE543B40115F0
:1001E600E54424EFFF743B2555F8A607744D2555C5
:1001F600F8A6070555E544C39411402FE544D3946A
:100206001A5028E560B40423E555C39408501CE54C
:1002160043B40117E54424EFFF74372555F8A607C4
:10022600744D2555F8A6070555801BE544C3941162
:100236004014E544D39414500DE56064036007ADA3
:1002460060AF4412068CE544641E60030202EFE5CB
:1002560060640360030202EFE55564046003020272
:10026600EFE543640160030202EFE557654D705DFB
:10027600E558654E7057E559654F7051E55A65501A
:10028600704BC297C296C2C7C2C6AF4BFE120A7364
:1002960012101A7BFF7A0B79D2121020AF427E0021
:1002A600120A7312101A7BFF7A0B79D2121020AF42
:1002B6002B7E00120A7312101A7BFF7A0B79D21268
:1002C6001020754901754C01E4F55E801C7F011212
:1002D6000C41055EE55EC39405400B7F04120C419C
:1002E600E4F543754C02E4F555E544641F600302EA
:1002F600037EE5606404600302037EE555640870CE
:1003060077E54364017071E557654D704FE55865B3
:100316004E7049E559654F7043E55A6550703DF595
:100326005E120FFEE5517013E552700FE553700B28
:10033600E55470077F03120C41803DC297C296C2F6
:10034600C7C2C685515785525885535985545A7F19
:10035600DC1210BA756003E4F54C801C7F01120CA8
:1003660041055EE55EC39405400B7F04120C41E433
:10037600F543754C02E4F555E5446420704AE560A2
:10038600B40317E555D394004010E543B4010B744C
:100396004C2555F8E4F6743A801AE560B4041EE577
:1003A60055D394004017E543B40112744C2555F813
:1003B600E4F674362555F876111555800BE4F549A3
:1003C600120FFEE4F560F54CAF60120EF2E4F54450
:0603D6001208330200D3FF
:10000E00E54B700FE542700BE52B70077D017F13FA
:04001E0012068C2218
:10068C008F0C8D0DE50D7065E50CB41112E54BB4B6
:10069C001709E4F54B7D017F138014054B804BE566
:1006AC000CB41214E54B700C754B177D017F1412B2
:1006BC00068C8036154B8032E50CB41314E542B42D
:1006CC003B0BE4F542FD7F1112068C801A0542802B
:1006DC0016E50CB41414E542700B75423BFD7F1209
:1006EC0012068C80021542E4F52B020CF8E50D6421
:1006FC00017069E50CB41114E546B40C0C0548E521
:10070C00487002054775460122054622E50CB412D5
:10071C0014E546B4010CE5481548700215477546BA
:10072C000C22154622E50CB4131674682546F8E61F
:10073C00B54A0A754A017D017F1102068C054A22D1
:10074C00E50CB41417E54AB401107D017F121206B2
:0D075C008C74682546F8E6F54A22154A22FD
:100C4100BF0108C297D296D2C7D2C6BF0208D297B7
:100C5100C296D2C7D2C6BF0308D297D296C2C7D214
:100C6100C6EF6404703AC2977FFA1210BA7FFA1283
:100C710010BAD297C2967FFA1210BA7FFA1210BA3E
:100C8100D296C2C77FFA1210BA7FFA1210BAD2C72F
:100C9100C2C67FFA1210BA7FFA1210BAD2C680C643
:010CA1002230
:100FFE00D297D296D2C7D2C6E4F54DF54EF54FF53F
:0C100E0050F551F552F553F554F55522FC
:1010A900E4FEEF25E0FF92C0D2C3C2C30EBE08F230
:0110B9002214
:100F4A00E575900C3993F4FF1210A974372575F8DA
:100F5A00E6900C0E93FF1210A9D2CCC2CC0575E50F
:0A0F6A0075C394084003E4F57522F6
:03000B00020F9D44
:100F9D00C0E0C083C082C0D075D000C000C006C004
:100FAD0007120F4AD201D007D006D000D0D0D08280
:050FBD00D083D0E032FA
:0F10BA007DA57C06ED1D70011C144C70F7DFF155
:0110C9002204
:10105100AD07AC06538EEF538EF7438E048CD6AF9B
:0A106100058FD753AFFB438E10221A
:100DD100BF020C438E017FD07EFF121051801BC2D7
:100DE1008E538EFE438E405389BF5389CF758DFF3D
:100DF100758BD0C2AB538FFDD28EE598543F4440E2
:100E0100F598D2ACD29C53A23F43A280C200E4F534
:040E110061F55F2206
:06101A008B648A65896603
:101020001207696010F599D2002000FD740129F9BA
:06103000E43AFA80EB2215
:03002300020E9634
:100E9600C0E0C0D075D000C000309815C2987476F6
:100EA600255FF8A699055FE55FC394204003755F4B
:0F0EB60000309904C299C200D000D0D0D0E032F1
:060968008B108A118912B8
:10096E008B138A1489158B168A178918AB16AA173A
:10097E00A918120769600D74012518F518E43517CA
:10098E00F51780E874FF2518F51874FF3517F5175D
:10099E00D3851483851582E5189582E517958340D6
:1009AE0039AB13AA14A915120769FFAB16AA17A91A
:1009BE0018120769FEAB130515E515AA147002058A
:1009CE001414F9EE120782AB16E5181518AA177053
:1009DE00021517F9EF12078280B6AB10AA11A912F1
:0109EE0022E6
:040A7300AB07AA061D
:100A7700E4F50CF50DF50EF50F8E0E8F0FC3EE6432
:100A87008094805007C3E49BFBE49AFA7C007D0ABC
:100A9700AF03AE021207A6ED2430FF050DE50D707A
:100AA70002050C142421F8A6077C007D0AAF03AECB
:100AB700021207A6AA06AB07D3EB9400EA940050EC
:100AC700CBC3E50E64809480500E050DE50D7002D2
:100AD700050C142421F8762D7421250DF8E4F6FB76
:070AE7007A00792112096871
:010AEE0022E5
:100CA200750CFF750D0B750ED4750FFF75100B7556
:100CB20011E2AB0CAA0DA90E1207696014F5993066
:100CC20099FDC2997401250EF50EE4350DF50D80DE
:100CD200E17F0A1210BAAB0FAA10A91112076960BC
:100CE20014F5993099FDC29974012511F511E43575
:050CF20010F51080E187
:010CF70022DA
:10108100AF99BF0107754901754C0122EF7004F555
:0310910049F54CD2
:011094002239
:10109500758920758DFD758BFDE4F587759850D2A2
:0410A500ACD28E2219
:08000300121095C299020CA233
:0C10E700C2AC8F993099FDC299D2AC22A6
:030023000208339D
:10083300C0E0C0F0C083C082C0D075D000C000C08B
:0D08430001C002C003C004C005C006C0070C
:100850007508FF75090B750AF885990BC298E50BA9
:10086000643A6007E55BD394004056E50B640A7078
:10087000477409652C7002740C7029AB08AA09A989
:100880000A1207696014F5993099FDC2997401251F
:100890000AF50AE43509F50980E17F0A1210BAAFBA
:1008A0004C1210E7755B007E007F0A7D007B007AAA
:1008B00000792C1208078009742C255BF8A60B051B
:0108C0005BDC
:1008C100D007D006D005D004D003D002D001D0008B
:0B08D100D0D0D082D083D0F0D0E03235
:1009EF0001FD0215022E02470262027E029B02B82F
:1009FF0002D702F603170338035A037D03A103C579
:100A0F0003EB04110438045F048804B104DB05050B
:100A1F000530055B058605B305DF060C063906664E
:100A2F00069406C206EF071D074B077807A607D3E4
:100A3F000800082D0859088608B108DD0908093291
:100A4F00095D098609AF09D709FF0A260A4D0A73FE
:100A5F000A980ABC0AE00B030B250B470B680B889F
:040A6F000BA80BC6FF
:100EC500E4F5BDF5BEE5BC54E044084FF5BC0000B3
:100ED5000000E5BC30E4FB53BCEFAFBDEF75F0049B
:0D0EE500A4FFAEF0E5BE5403FDEF4DFF226B
:0403DC008E0F8F10E1
:1003E000C3E49510F5107410950FF50F751109758C
:1003F00012EF851282851183D37401939510E493D3
:10040000950F40057EFF7FFE22851282851183C3F2
:100410007483939510748293950F50057EFF7FFF30
:1004200022E4F5157F41FBEFC313FEE515C3132E40
:10043000FE85128285118375F0021207FBC37401D9
:10044000939510E493950F4004AF0680028E150B30
:10045000BB05D485128285118375F002E51512075C
:10046000FB740193B51007E493B50F02803F85122A
:100470008285118375F002EF1207FB740193B510AA
:1004800008E493B50F03EF8026E515D39F400302E0
:10049000054F051585128285118375F002E5151249
:1004A00007FB740193B51013E493B50F0EE51575B2
:1004B000F00AA485F013F51402054F851282851108
:1004C0008375F002E5151207FBD37401939510E4D0
:1004D00093950F40B4151585128285118375F0022E
:1004E000E5151207FBE493F513740193F514E51574
:1004F0002401FFE433FEEF25E0FFEE33FEE5122F8B
:10050000F582E5113EF583C37401939514FBE493E2
:100510009513FAC3E5109514FFE50F9513FE7C00C3
:100520007D0A120794AD03AC021207A6AB07751340
:1005300000851514AE13AF147C007D0A1207948E4B
:10054000138F14AF03EF2514F514E43513F513AE30
:0305500013AF14D2
:010553002285
:100E15007B007A00790C7513037F02120E57E50CDF
:100E2500C4540775F00AA4FFE50C540F2FF52BE504
:100E35000DC4540775F00AA4FFE50D540F2FF542B4
:100E4500E50EC4540375F00AA4FFE50E540F2FF503
:010E55004B51
:010E56002279
:100CF800E52B75F00A84C454F0FFE52B75F00A84DF
:100D0800E5F02FF50EE54275F00A84C454F0FFE5CE
:100D18004275F00A84E5F02FF50FE54B75F00A846B
:100D2800C454F0FFE54B75F00A84E5F02FF5107B0D
:0D0D3800007A00790E7515037F02020F1F6F
:0710F300D2911210FAD29015
:0410FA007F0BDFFE8B
:0110FE0022CF
:0D10DA001210F3C2911210FAC2900210FA27
:0A10FF00C2911210F5D2910210FA0E
:0A110900C2911210F5C2900210FA14
:081113001210F3C2900210FA61
:0A106B00AC071210DA7FA2120FE1A9
:0C1075001210F3A29192D5C2900210FA62
:020FE100AE0759
:100FE3007D08EE30E704D2918002C291EE25E0FE47
:0A0FF3001210F5C2901210FADDE8AA
:010FFD0022D1
:101036007D08D291D2901210FAEE25E0FE30910191
:0A1046000EC2901210FADDECAF06A6
:01105000227D
:100F1F0012106B20D522AF04120FE112107520D5DD
:100F2F0017120769FF120FE1740129F9E43AFA1257
:0B0F3F00107520D503D515E90210FF46
:100E570012106B20D536AF04120FE112107520D592
:100E67002B1210DA7FA3120FE112107520D51D1275
:100E77001036EF120782740129F9E43AFAE5136490
:0F0E8700016003121109D513E61211130210FFB7
:1010CA00000102000300000004000000000000000C
:04111B007F3CDFFE38
:01111F0022AD
:100AEF00AE5C7580F012111BE58054F0F55C7580DB
:100AFF000F12111BE580540F425C635CFFEE655CC7
:100B0F00704CAE45855C45E5456040C2D5EE70043E
:100B1F00D2D58012EEB5450E0556E556C394144056
:100B2F0005755612D2D530D525E545C4540F901012
:100B3F00CA93FE6019E545540F93FF6011EE25E04F
:100B4F0025E0FEEF2E240CF5448003E4F556758066
:010B5F00FF96
:010B60002272
:100EF2008F0CE50CB40303020D8BE50CB404030262
:100F02000F74120FFEE50C7003020D45E50CB401DF
:0D0F120003020B61E50CB40203120554222A
:100D4500E54BC3940A400AE54B75F00A84F53780F4
:100D550003753710E54B75F00A8485F03875391140
:100D6500E54275F00A84F53AE54275F00A8485F0A6
:100D75003B753C11E52B75F00A84F53DE52B75F0C7
:060D85000A8485F03E2205
:100B6100AE47AF487C037DE81207A68F37AE47AF8B
:100B7100487C037DE81207A67E007F64CFCDCFCEEF
:100B8100CCCE1207A68F38AE47AF487C007D6412E9
:100B910007A67E007F0ACFCDCFCECCCE1207A68F7F
:100BA10039AE47AF487C007D0A1207A68D3AE5466B
:100BB10075F00A84F53BE54675F00A8485F03CE55D
:100BC1004A75F00A84F53DE54A75F00A8485F03EE0
:010BD1002201
:100554007F02120EC58E0D8F0EC3E50D9404505309
:100564007C037DE81207A68F37AE0DAF0E7C037DAA
:10057400E81207A67E007F64CFCDCFCECCCE120783
:10058400A68F38AE0DAF0E7C007D641207A67E00E8
:100594007F0ACFCDCFCECCCE1207A68F39AE0DAF0A
:1005A4000E7C007D0A1207A68D3AE537700F753769
:1005B40010800A7F0478377411F608DFFC7F031279
:1005C4000EC58E0D8F0E7F03120EC5EF250EF50E90
:1005D400EE350DF50D7F03120EC5EF250EF50EEE6B
:1005E400350DF50D7F03120EC5EF250EF50EEE3514
:1005F4000DF50DC39410400302068BAF0EAE0D1221
:1006040003DC8E0D8F0EC3E50E9496E50D94004029
:1006140010C2D5746A250EF50E74FF350DF50D80E4
:100624000ED2D5C37496950EF50EE4950DF50DAE68
:100634000DAF0E7C037DE81207A68F3BAE0DAF0E07
:100644007C037DE81207A67E007F64CFCDCFCECC9D
:10065400CE1207A68F3CAE0DAF0E7C007D64120750
:10066400A67E007F0ACFCDCFCECCCE1207A6EF2434
:1006740020F53DAE0DAF0E7C007D0A1207A68D3E1F
:07068400E53B7003753B101C
:01068B00224C
:100D8B00753710753810753910753A107F04E555A5
:100D9B002404FDE433FCEFC39DEC6480F87480986D
:100DAB00500F74492FF8E6FE74372FF8A6060F8004
:100DBB00DDE5552404FFEFC39408500974372FF871
:050DCB0076110F80F11C
:010DD0002200
:100F74007F04EFC39555500F744D2FF8E6FE743778
:100F84002FF8A6060F80EBAF55EFC39408500974F1
:080F9400372FF876110F80F1F0
:010F9C002232
:030000000208DC17
:0C08DC00787FE4F6D8FD758195020923B1
:10076900BB010689828A83E0225002E722BBFE028E
:09077900E32289828A83E49322C1
:10078200BB010689828A83F0225002F722BBFE0156
:02079200F32250
:10079400EF8DF0A4A8F0CF8CF0A428CE8DF0A42E79
:0207A400FE2233
:1007A600BC000BBE0029EF8DF084FFADF022E4CC37
:1007B600F875F008EF2FFFEE33FEEC33FCEE9DEC00
:1007C600984005FCEE9DFE0FD5F0E9E4CEFD22ED46
:1007D600F8F5F0EE8420D21CFEADF075F008EF2F90
:1007E600FFED33FD4007985006D5F0F222C398FD81
:0507F6000FD5F0EA221E
:0C07FB00A42582F582E5F03583F5832209
:10080700EF4E6012EF60010EEDBB010B89828A8308
:10081700F0A3DFFCDEFA2289F05007F709DFFCA915
:0C082700F022BBFEFCF309DFFCA9F0226C
:1008E800020026E493A3F8E493A34003F68001F200
:1008F80008DFF48029E493A3F85407240CC8C33311
:10090800C4540F4420C8834004F456800146F6DFDF
:10091800E4800B0102040810204080900FC2E47E9E
:10092800019360BCA3FF543F30E509541FFEE493D4
:10093800A360010ECF54C025E060A840B8E493A39B
:10094800FAE493A3F8E493A3C8C582C8CAC583CAC6
:10095800F0A3C8C582C8CAC583CADFE9DEE780BE7E
:010FE0000010
:00000001FF
